:020000020000FC
:10000000B1CC18951895CACA1895189518951895D1
:100010001895189518951895189518951895189578
:1000200018951895189520C0E2F2EEECE0F2E8E79A
:10003000E8F0EEE2E0EDEDE0FF202020202020E0DF
:10004000EAE2E0F0E8F3ECEEEC202020202020F1C2
:10005000E8F1F2E5ECE020F3EFF0E0E2EBE5EDE8CB
:10006000FF20202022D3ECEDFBE920E0EAE2E0F0E3
:10007000E8F3EC22202000D0F3F7EDEEE920F0E5E4
:10008000E6E8EC20F0E0E1EEF2FB20C0E2F2EEEC7C
:10009000E0F2E8F7E5F1EAE8E920F0E5E6E8ECC2AD
:1000A000EEE4E03A202020202020202020202020E4
:1000B00020202000D1E2E5F23A202020202020203C
:1000C00020202020202020200020203A20203A201C
:1000D00020202020202F20202F3230202000D3F17C
:1000E000F2E0EDEEE2EAE020E4E0F2FB20E820209E
:1000F0002020CAEEF0F0E5EAF2E8F0EEE2EAE03ABB
:10010000202020202020E2F0E5ECE5EDE820202072
:100110002020202020202020202020683A6D6D3AC9
:100120007373202020642F4D4D2F323079790020B9
:10013000CDE0F1F2F0EEE9EAE02050574D28D8C8C2
:10014000CC292020202020202020202020202020FA
:100150002020202020202020D0E5E4E0EAF2E8F072
:100160002E20E7EDE0F7E5EDE8E52020C7E0E2E549
:10017000F0F8E8F2FC20F0E5E4E0EAF2E8F02E0026
:10018000000000000000000000000000000000006F
:10019000000000C7EDE0F7E5EDE8E5202320202092
:1001A00020202020202020DFF0EAEEF1F2FC3A208F
:1001B0002020202520202020202020C2F0E5ECFF58
:1001C0003A2020203A2020202020202020202020FB
:1001D000202020202020202020202020202020201F
:1001E00020202000CCE0EAF1E8ECE0EBFCEDEEE5CD
:1001F00020E7EDE0F7E5ED2E202020202020202034
:1002000020202020202020202020202050574D205A
:10021000E2FBF5EEE4E03A20202020202020202000
:1002200020202020202020202020202020202020CE
:100230002020202000CEF2EAEBFEF7E5ED0020D0F2
:10024000E5E6E8EC20F0E0E1EEF2FB2020202020C3
:10025000202020202020202020202020202020209E
:1002600020202020202020D0F3F7EDEEE9202020D0
:100270002020202020202020202020C0E2F2EEECB0
:10028000E0F2E8F7E5F1EAE8E9202020202000008C
:10029000000000000000000000000000000000005E
:1002A0000000202020CCE5EDFE20EDE0F1F2F0EEA4
:1002B000E5EA2020202020CDE0E7E0E42E2E2E20CD
:1002C0002020202020202020202020D0E5E6E8EC5F
:1002D00020F0E0E1EEF2FB2020202020202020D39F
:1002E000F1F2E0EDEEE2EAE020E2F0E5ECE5EDE847
:1002F000202020CDE0F1F2F0EEE9EAE020EEF1E29C
:10030000E5F9E5EDE8FF20CFE0F0E0ECE5F2F0FB09
:100310002050574D20202020202000000000000009
:1003200000000000000000000000000000001F1D91
:100330001F1E1F1E1F1F1E1F1E1F0001020304057C
:10034000060708090A0B0C0D0E0F101112131415D5
:10035000161718191A1B1C1D1E1F202122232425C5
:10036000262728292A2B2C2D2E2F303132333435B5
:10037000363738393A3B3C3D3E3F404142434445A5
:10038000464748494A4B4C4D4E4F50515253545595
:10039000565758595A5B5C5D5E5F60616263646585
:1003A000666768696A6B6C6D6E6F70717273747575
:1003B000767778797A7B7C7D7E7F00000000000074
:1003C000000000000000000000000000000000002D
:1003D000000000000000000000000000000000001D
:1003E0000000CB00000000000000B0B1B2B3B400C8
:1003F0000000CB00000000000000418042928145D7
:10040000828384854B864D484F8750435488D85803
:10041000898A8B8C8D8E628FACAD418042928145F2
:10042000828384854B864D484F8750435488D858E3
:10043000898A8B8C8D8E628FACAD1000E10100003B
:100440000100E001C21B75DB2801622EB32FA62D2F
:1004500080E000E859D8482F50E004E110E0BEDA0F
:1004600098018201020F131F8AD700EC4DD8482F44
:1004700050E004E110E0B2DA98018201020F131F8C
:100480000C5E1F4F7CD704E93FD8482F50E004E1B1
:1004900010E0A4DA98018201020F131F085D1F4FBC
:1004A0006ED704ED31D8482F50E004E110E096DA21
:1004B00098018201020F131F045C1F4F60D7A13007
:1004C00019F400E821D80EC0A23019F400EC1CD8B1
:1004D00009C0A33019F404E917D804C0A43011F4FA
:1004E00004ED12D800E12FD70FEF1FE02EE00150EE
:1004F00010402040E1F700C00000CFD6902F9C3084
:1005000091F09D3011F011E001C010E09A3011F02F
:1005100001E001C000E01023112329F09B3019F005
:10052000BCD6902FECCF9D30A1F4A43010F4A3954D
:1005300010C0482F50E004E110E050DAF201E00F63
:10054000F11FEF5AFF4F0491E155F040002309F0ED
:1005500083959C3001F5A23060F07724282F30E09D
:100560000A2F10E0200F311F6216730614F4AA95AB
:1005700012C0A13021F4681610F48A950CC08615BB
:1005800028F4813018F0A3958A9505C0882319F4C2
:100590006A1608F4AA959B3021F48A0F8619082F51
:1005A00005C09A3011F40FEF01C053CFE8E0D2CA72
:1005B000BEDAC80139012A01A62FBEEF4816590636
:1005C00008F4C2018615970508F4C3014C010A2FEF
:1005D00000689AD7820144D10A2F006895D78C0110
:1005E00021D70DE091D7BF3F19F457D6B02FFBCFDD
:1005F000BA3080F44AE050E0820104DA08171907A3
:1006000048F04AE050E08C01E9D9C8010B2F10E016
:10061000800F911F4816590608F4C201B13139F410
:1006200080E090E00A2F00686FD7820119D10A2F6D
:1006300000686AD7082F092B11F08C01F3D60FEF51
:100640001FE02EE0015010402040E1F700C0000004
:10065000BC3091F48415950508F401960A2F0068C2
:1006600053D78C01DFD60FEF1FE02EE00150104072
:100670002040E1F700C00000BD30B9F468167906EB
:1006800008F401970A2F00683FD78201E9D00A2FAA
:1006900000683AD78C01C6D60FEF1FE02EE001505C
:1006A00010402040E1F700C00000BE3061F44AE095
:1006B00050E08C01A7D9C8010A2F006825D78C010A
:1006C000B1D600E240D6BB3021F48615970550F430
:1006D00008C0BA3021F40CE017D7840106C0BFEF80
:1006E00082CFC3010CE010D78C01EAE031CA1FDAD7
:1006F000C80139012A01A62FBEEF481659060CF48D
:10070000C201861597050CF4C3014C010A2F00683D
:10071000FBD6772012F400E216D68201A1D00A2F70
:100720000068F2D68C01E3D60DE0EED6BF3F19F497
:10073000B4D5B02FFBCFBA3080F44AE050E082014C
:1007400079D9081719074CF04AE050E08C0146D9D6
:10075000C8010B2F10E0800F911F481659060CF4AA
:10076000C201B13159F480E090E00A2F0068CCD684
:10077000772012F400E2E7D5820172D00A2F0068D8
:10078000C3D60FEF1FEB22E1015010402040E1F7EC
:1007900000C00000BC30D9F499233AF40A2F006855
:1007A000B3D600E2D0D582015BD0841595050CF458
:1007B00001960A2F0068A8D68C0199D60FEF1FEB7F
:1007C00022E1015010402040E1F700C00000BD30A0
:1007D000D9F4681679060CF401970A2F006894D6AC
:1007E000772012F400E2AFD582013AD00A2F0068D8
:1007F0008BD68C017CD60FEF1FEB22E1015010400D
:100800002040E1F700C00000BE3061F44AE050E053
:100810008C0110D9C8010A2F006876D68C0167D6E2
:1008200000E291D5BF3041F49195819590400A2F17
:1008300000686AD68C015BD6BB3021F4861597051B
:1008400054F408C0BA3021F40CE05ED6840106C02E
:10085000BFEF6CCFC3010CE057D68C01EAE078C93A
:100860006ED9C80100E26FD58A3000E09007A4F08D
:1008700000E269D5843600E0900774F000E263D5A9
:10088000883E03E0900744F000E25DD5803107E246
:10089000900714F000E257D5E2E062C98A9336E08F
:1008A00022E002EA12E0CFDD802F082F005049F04D
:1008B0000A9589F00A9589F00A9589F00A9589F0D8
:1008C000EECF0FEF1FEB22E1015010402040E1F787
:1008D00000C0000008C0EED1E2CFA4D0E0CF0AD122
:1008E000DECFF0D1DCCF8991089526D9D801922F9F
:1008F000832F442E00E808D64091EF0150E004E138
:1009000010E06CD8980107E710E0020F131F37D5ED
:1009100000ECFAD50FE910E020D506ECF5D5042D52
:100920004AD500EB10D503E40ED504E9EDD504EB70
:1009300010E013D50AE9E8D59130E8F0492F50E0EE
:100940004F5F5F4F04E610E049D8012F10E033D528
:1009500005E2F9D4813011F408E1F5D4823011F4C4
:1009600009E1F1D4833011F40DE2EDD4882331F4A0
:1009700000E2E9D403C005E312E0EFD404EDC4D5EE
:1009800009EC10E0EAD48D0102D0E5E0E6C8D5D844
:10099000D80104EDB9D513960C9113970A3010F4D1
:1009A00000E2D1D413960C91139705D507EDACD581
:1009B00012960C9112970A3010F400E3C4D41296E8
:1009C0000C911297F8D40AED9FD511960C911197BE
:1009D0000A3010F400E3B7D411960C911197EBD4C0
:1009E0000EED92D514960C9114970A3010F400E293
:1009F000AAD414960C911497DED401EE85D51596E1
:100A00000C9115970A3010F400E39DD415960C91C3
:100A10001597D1D406EE78D516960C911697CBD4AF
:100A2000E4E09CC800E870D50EED10E096D403EA2F
:100A30006BD54DE350E0ADD7EAD402EE11E0A7DF6D
:100A400066EE43E650E02FE030E00091E80110E070
:100A5000AFDD0093E80161EE4CE050E021E030E0D2
:100A60000091E70110E0A4DD0093E7016EED009135
:100A7000E70110E0F801E25DFC4F449150E021E015
:100A800030E00091E60110E093DD0093E60164EDB3
:100A900047E150E020E030E00091E50110E088DD22
:100AA0000093E50167ED4BE350E020E030E000917A
:100AB000E40110E07DDD0093E4016AED4BE350E0DA
:100AC00020E030E00091E30110E072DD0093E301EB
:100AD00063EA48E750E028E83FEF0A014DE350E0C1
:100AE00058D7102F110F110BA00101DE4DE350E07C
:100AF00063D7089521D880E0843108F0D9C034E06C
:100B000023E00FE211E09FDC402E442009F0A6C054
:100B100000E8FAD403E911E020D40BE8F5D4082F5B
:100B2000039549D407ECF0D4482F50E003E010E0DF
:100B300055D740E050E0400F511F2BD7083110F03F
:100B400000E00AC0482F50E003E010E047D740E043
:100B500050E0400F511F1DD7A02F0A2F2CD40AECB4
:100B6000D3D421E030E0482F50E003E010E036D746
:100B7000200F311FA9010DD70C3310F000E00BC07E
:100B800021E030E0482F50E003E010E027D7200FAD
:100B9000311FA901FED6902F092F0DD40DE9B4D431
:100BA00022E030E0482F50E003E010E017D7200F9C
:100BB000311FA901EED6402F50E004E610E00ED719
:100BC0000E5C1F4F4FEF50E01DD7B02F0B2FF3D30C
:100BD00067EC47E150E020E030E00A2F10E0E8DC6D
:100BE000202F482F50E003E010E0F8D640E050E01E
:100BF000400F511F022FE0D66AEC4BE350E020E09B
:100C000030E0092F10E0D4DC602F21E030E0482FE5
:100C100050E003E010E0E2D6200F311F062FA901BB
:100C2000CBD66DE944E650E020E030E00B2F10E039
:100C3000BFDC4FEF50E0D2D644E650E0E3D6602F61
:100C400022E030E0482F50E003E010E0C7D6200F4C
:100C5000311F062FA901B0D683954ECF843140F5C0
:100C60002FEF482F50E003E010E0B8D640E050E00E
:100C7000400F511F022FA0D66FEF21E030E0482F28
:100C800050E003E010E0AAD6200F311F062FA90183
:100C900093D66FEF22E030E0482F50E003E010E001
:100CA0009DD6200F311F062FA90186D68395D6CF5A
:100CB000E5E053C734E023E00EE312E0C4DB009329
:100CC000EF01089500E820D404EE11E046D36CEC67
:100CD0004FEF50E020E030E00A014CE350E059D6FD
:100CE00010E0A00165DC4CE350E066D64CE350E038
:100CF00050D60093E101089502E20FBD09E10EBD57
:100D00000FEF10E017BD06BD00E010E01BBD0ABDEF
:100D100000E010E019BD08BDC19A07B3066007BB2B
:100D20004CE350E036D60093E1010895FAD628014D
:100D30003901FA0188899989AA89BB898C889D889B
:100D4000AE88BF88488D598D6A8D7B8D8201930155
:100D500084D668017901A401B501820193017DD691
:100D6000A801B90186019701041B150B260B370B4F
:100D7000AF01652F660F660B762F841B950BA60BB4
:100D8000B70BAC01BD01ACD6800E911EA21EB31EE6
:100D900084019501ECE1D6C6C4D62A970F83188743
:100DA0002987488359836A834A8C5B8CF20143818B
:100DB00050E000E11EE012D64801A92CAA0CAA08B6
:100DC000BA2CF201428150E00CE310E007D6212F4B
:100DD000220F220B322F800E911EA21EB31EF20193
:100DE000018110E020E030E0800E911EA21EB31EB3
:100DF000640175014F8150E000E11EE0EFD548012C
:100E0000A92CAA0CAA08BA2C488550E00CE310E0E3
:100E1000E5D5212F220F220B322F800E911EA21E0C
:100E2000B31E8B829C82AD82BE82488150E000E17D
:100E30001EE0D4D54801A92CAA0CAA08BA2C4981D5
:100E400050E00CE310E0CAD5212F220F220B322FE5
:100E5000800E911EA21EB31EC401D5010B811C8100
:100E60002D813E8180179107A207B30724F4805893
:100E70009E4AAE4FBF4F0B811C812D813E810817CA
:100E800019072A073B0721F40A8110E038012CC01A
:100E90000A8110E020E030E03A932A931A930A93F3
:100EA0000D8510E020E030E03A932A931A930A93DC
:100EB0004B855C856D857E858C019D01041B150B22
:100EC000260B370B3A932A931A930A9340E050E08B
:100ED0000F84188829883A8886019701001911091A
:100EE0002209330923DF380100E0601601E07006B3
:100EF00014F00FEF01C0062D2A96E2E123C617D6A3
:100F0000F801438150E008E017E068D5980142817C
:100F100050E00EE110E062D5200F311F01810695EF
:100F200010E0200F311F2F5F3F4F190140E050E0CC
:100F300030D5402F50E008E017E050D5980141E04F
:100F400050E027D5402F50E00EE110E047D5200FAC
:100F5000311F390160E0643108F053C0633108F09B
:100F600049C023E030E0462F50E003E010E036D5E2
:100F7000200F311FA9010DD50F3FE1F123E030E033
:100F8000462F50E003E010E029D5200F311FA901C2
:100F900000D5402F50E008E017E020D5980104E08C
:100FA000802E00E0902E462F50E003E010E016D592
:100FB000800E911EA401EDD4402F50E00EE110E010
:100FC0000DD5200F311F29016214730488F44214D7
:100FD000530470F023E030E0462F50E003E010E0CF
:100FE000FDD4200F311FA901D7D4D801922F09C0F9
:100FF000320105C040E050E0CFD4D801922F639574
:10100000AACF8D01292FEAE0A3C58A93802F8823D8
:10101000B1F00091E101809F80014FEF50E0F2D4E8
:1010200019BD08BDC19B09C00FEF1FED21E00150A4
:1010300010402040E1F700C00000C19805C0C19AEF
:1010400000E010E019BD08BD899108950FE005BDCD
:1010500000E809BF03EB03BD0895E02F312F522FA5
:10106000652F28E0213060F1432F01E010E0BED46D
:10107000F0E01081102B10830CE00A95F1F760FB73
:101080004EF4432F01E010E0B1D40095F0E0108160
:101090001023108307E611E001501040E9F700C06B
:1010A0000000432F01E010E0A1D40095F0E0108192
:1010B000102310830CE00A95F1F766952A95D2CF9C
:1010C00008953AD5A02FB12F922F432E492F01E03A
:1010D00010E08CD4EA2FF0E01081102B108309EC83
:1010E00018E001501040E9F700C00000492F01E06E
:1010F00010E07CD40095EA2FF0E0108110231083DB
:101100000CE00A95F1F784E6EB2FF0E0208130E067
:10111000492F01E010E06AD420233123492F01E058
:1011200010E064D42017310731F40CE00A95F1F790
:101130008A95882349F78823C1F088E2EB2FF0E0F5
:10114000208130E0492F01E010E050D420233123EA
:10115000492F01E010E04AD42017310731F00CE0AC
:101160000A95F1F78A95882349F709EC18E00150B0
:101170001040E9F700C00000882321F0242D192F2A
:101180000A2F6BDF082FE5E0E8C4302F512F722FB4
:1011900060E028E02130B0F16695472F01E010E0D3
:1011A00025D4E32FF0E01081102B10830CE00A957A
:1011B000F1F7472F01E010E019D40095E32FF0E09C
:1011C0001081102310830CE30A95F1F7E52FF0E06E
:1011D00000801124472F01E010E008D400221122E2
:1011E000472F01E010E002D40016110611F46068E8
:1011F00001E007E611E001501040E9F700C00000EF
:101200002A95C8CF062F089598D4A02FB12F822FEA
:10121000932F492F01E010E0E9D30095EA2FF0E089
:10122000108110231083492F01E010E0DFD30095D7
:10123000EB2FF0E01081102310833EEE292F182FA2
:101240000B2F3FDF002399F03AEA292F182F0B2F9D
:1012500038DF002361F000E00093EA01292F182F06
:101260000B2F93DF0093E0010091E0010DC000918E
:10127000EA0103950093EA010091EA010B3010F0B6
:101280000FE702C00091E001E4E068C401B30F7110
:1012900001BB02B3006E02BB089585991AC010E02D
:1012A0001A3058F42FEF31E121503040E9F700C0F7
:1012B0000000859902C01395F3CF193050F086993C
:1012C00002C001E10895879902C00EE008950CE084
:1012D000089586991AC010E01A3058F42FEF31E1C2
:1012E00021503040E9F700C00000869902C01395F4
:1012F000F3CF193050F0859902C001E10895879924
:1013000002C00FE008950DE0089587991AC010E01B
:101310001A3058F42FEF31E121503040E9F700C086
:101320000000879902C01395F3CF193050F08599CA
:1013300002C00EE00895869902C00FE008950BE008
:1013400008950FEF0895FBD3802F90E0FC01E65C39
:10135000FC4F0491E3D0E2E003C4F1D3C801FC01E7
:101360000491002351F0FC01049110E0F801E65CC7
:10137000FC4F0491D3D00196F2CFE2E0F1C3DED36B
:10138000C801A0E0FC010491002311F40A2F11C050
:101390000A2FA02FA395043110F00A2F0AC0FC01D8
:1013A000049110E0F801E65CFC4F0491B7D001967F
:1013B000E9CFE3E0D4C3C1D3802F4AE0082F00D3A4
:1013C000942F4AE0082FFCD2802F4AE0082FF8D251
:1013D000A42F4AE0082FF4D2B02FBB2351F00B2FDB
:1013E00000639CD00A2F006399D0092F006396D028
:1013F0000CC0AA2339F00A2F006390D0092F006394
:101400008DD003C0092F006389D0E4E0A7C38A937D
:10141000802F88231AF40DE281D08195082FCBDF2D
:101420008991089587D3C8014AE050E08C01EAD23F
:10143000A42F4AE050E08C01E5D2C8014AE050E018
:101440008C01E0D2B42F4AE050E08C01DBD2C8011D
:101450004AE050E08C01D6D2442E4AE050E08C01A4
:10146000D1D2C8014AE050E08C01CCD2542E4AE0DF
:1014700050E08C01C7D2602E662081F0062D0063FB
:101480004DD0052D00634AD0042D006347D00B2FAB
:10149000006344D00A2F006341D027C0552069F073
:1014A000052D00633BD0042D006338D00B2F006363
:1014B00035D00A2F006332D018C0442051F0042DDB
:1014C00000632CD00B2F006329D00A2F006326D095
:1014D0000CC0BB2339F00B2F006320D00A2F006310
:1014E0001DD003C00A2F006319D0E7E034C327D30F
:1014F000C80199232AF40DE211D09195819590406D
:101500008C0190DFE2E02CC38A93802FC49808EF0F
:101510000FD0082F0DD0C49A899108958A93802FF7
:10152000C4980AEF05D0082F03D0C49A8991089572
:10153000302F20E02830B8F4C59800C0422F00E8D2
:1015400010E05AD2132F1023112311F001E001C033
:1015500000E0102F10FDC39A10FFC39800C0C59A79
:1015600000C02395E7CF08958A93802F082F03703A
:101570000863CADF89910895C49ABC9AC59ABD9A36
:10158000BB9A01E20A95F1F7000001E0BDDF02E03D
:10159000BBDF0CE0B9DF03E0E7DF0895FA93EA93DD
:1015A0005A934A933A932A931A930A933FB7009116
:1015B000E20103950093E201043608F489C0EBEEE2
:1015C000F1E000810160008300E00093E2010091FE
:1015D000E30103950093E3010C3308F454C000E0E9
:1015E0000093E301EBEEF1E00081026000830091E3
:1015F000E40103950093E4010C3308F444C000E0D7
:101600000093E401EBEEF1E00081046000830091BF
:10161000E50103950093E5010831A8F100E000938E
:10162000E5014DE350E0B5D10093E9012091E601D9
:1016300023952093E6010091E70110E0F801E35DB6
:10164000FC4F0491021768F00091E6010D31D9F4C6
:101650000091E7010230B9F40091E8010370002322
:1016600091F001E00093E6010091E70103950093FA
:10167000E7010D3040F001E00093E7010091E8013F
:1016800003950093E8010091E501002309F500911D
:10169000E9010023E9F00091E90101301CF001E0CB
:1016A00010E002C00FEF1FEF1091E301100F109335
:1016B000E3010091E901013034F00091E9010A955C
:1016C0000093E90105C00091E90103950093E90148
:1016D0003FBF099119912991399149915991E99106
:1016E000F991189527D208DBB1DC0FEF1FE925E04F
:1016F000015010402040E1F700C00000C7DD3CDF92
:1017000000E802DF06E210E028DE0FEF1FE720E727
:10171000015010402040E1F700C00000789430E014
:1017200026E317E308E370DD402F30E00091EC0181
:101730001091ED01202F02EE11E0D7D802EE11E05A
:10174000DEDBD801922FEBEEF1E0008100FF2FC02D
:10175000EBEEF1E000810E7F008330E026E317E33B
:1017600008E352DD0093EE010091EF01013099F49E
:1017700002EE11E01A930A93AD01692F8201262D22
:101780000BDB10E00093EC011093ED010091EC01F4
:101790001091ED013ADC4091EE013091F0010091A1
:1017A000EC011091ED01202F02EE11E09ED8EBEE3E
:1017B000F1E0008101FF25C0EBEEF1E000810D7F3B
:1017C00000830091E5010A17E0F00091E4010B1796
:1017D000C0F02D01692E02EE11E091DBD801922FAD
:1017E000961520F402E00093F0010BC0691620F476
:1017F00001E00093F00105C0691619F403E00093BD
:10180000F001EBEEF1E0008102FF30C0EBEEF1E021
:1018100000810B7F00830091E501002379F4ACDEA9
:101820004091EE013091F0010091EC011091ED0139
:10183000202F02EE11E059D803E096DE0091E50179
:10184000063011F402E090DE0091E501083011F459
:1018500000E08ADE0091E501003111F401E084DE50
:101860000091E501043111F402E07EDE16DD0B305B
:1018700031F514D80091EF01013009F50091EC0128
:101880001091ED01602E0091E501402E0091E401E0
:10189000502E02EE11E033DBD801922F961520F482
:1018A00002E00093F0010BC0691620F401E0009300
:1018B000F00105C0691619F403E00093F0010091EE
:1018C000EF01002309F03FCFE8DC0C3021F0E5DC2C
:1018D0000D3009F038CF0091EC011091ED010F3F70
:1018E00020E0120758F4D9DC0C3041F4ECEEF1E0C2
:1018F000008111810F5F1F4F008311830091EC0164
:101900001091ED01012B59F0C8DC0D3041F4ECEEE3
:10191000F1E000811181015010400083118300919A
:10192000EC011091ED0171DB4091EE0130E000918E
:10193000EC011091ED01202F02EE11E0D6D720919D
:10194000EC013091ED01022F083C40F42CEC31E029
:1019500021503040E9F700C00395F6CFF4CE0000E7
:101960008895FECF0FED0DBF01E00EBFC0E6D1E0C0
:10197000FED0002309F00BD1B5DEF1DFF0CFE19905
:10198000FECF08954F5F5F4FFADF4EBB5FBBE09A1B
:101990000895FADF0DB30895F7DF0DB3F3DF1DB33C
:1019A000F1DF2DB308954F5F5F4F4EBB5FBBF894DF
:1019B000E29AE19A0FBE08950FB6E1DF0DBBF5CFB5
:1019C0000024E8E0EA9532F0001F001C0416D0F372
:1019D000041AF8CF001F402D00950895149F102D74
:1019E000059F100D049F002D110D08954A951AF0C2
:1019F000000F111FFBCF08954A951AF01595079512
:101A0000FBCF089500241124EFE0001F111F001CDC
:101A1000111C0416150610F0041A150AEA95AAF707
:101A2000001F111FA0010095109508955195419533
:101A300050400895FF27552312F4F160F7DF11237A
:101A400012F4F09506D0DEDFF0FD03D0F1FDEECF0D
:101A5000089511950195104008952224349F302D4A
:101A6000259F300D169F300D079F300D249F202D90
:101A7000310D159F200D311D069F200D311D149F26
:101A8000102D210D321D059F100D211D321D049FAB
:101A9000002D110D221D321D089500241124100166
:101AA000E0E2EA9592F0001F111F221F331F001C75
:101AB000111C221C331C041615062606370688F353
:101AC000041A150A260A370AECCF001F111F221F1D
:101AD000331FA001B1010095109520953095089510
:101AE000FF27772312F4F16014D0332312F4F0951A
:101AF00008D0D3DFF69508F404D0F69508F409C0B1
:101B0000089530952095109501951F4F2F4F3F4F09
:101B1000089570956095509541955F4F6F4F7F4F39
:101B20000895FA92EA92DA92CA92BA92AA929A9294
:101B30008A927A926A925A924A92BA93AA939A9302
:101B40008A930895FF84EE84DD84CC84BB84AA84C8
:101B5000998488847F806E805D804C80BB81AA815F
:101B600099818881F0E0EC0FFD1FEF01089501E0FD
:101B7000089520E006D0E9F70895259102D0E9F70D
:101B800008952D9301501040202F212B08958AE3B2
:101B900094E0FC0105911491FC013296A591B49159
:101BA000FC01349625913491422F432B19F0F90111
:101BB000E4DF01C0DEDF069614E08634910748F3C7
:031BC00008957F06
:0400000300000000F9
:00000001FF
