:20000000A9CC18951895C8CA18951895189518951895189518951895189518951895189563
:2000200018951895189520C0E2F2EEECE0F2E8E7E8F0EEE2E0EDEDE0FF202020202020E0A9
:20004000EAE2E0F0E8F3ECEEEC202020202020F1E8F1F2E5ECE020F3EFF0E0E2EBE5EDE8DD
:20006000FF20202022D3ECEDFBE920E0EAE2E0F0E8F3EC22202000D0F3F7EDEEE920F0E537
:20008000E6E8EC20F0E0E1EEF2FB20C0E2F2EEECE0F2E8F7E5F1EAE8E920F0E5E6E8ECC2B9
:2000A000EEE4E03A20202020202020202020202020202000D1E2E5F23A20202020202020D0
:2000C00020202020202020200020203A20203A2020202020202F20202F3230202000D3F168
:2000E000F2E0EDEEE2EAE020E4E0F2FB20E820202020CAEEF0F0E5EAF2E8F0EEE2EAE03A49
:20010000202020202020E2F0E5ECE5EDE82020202020202020202020202020683A6D6D3A4C
:200120007373202020642F4D4D2F323079790020CDE0F1F2F0EEE9EAE02050574D28D8C8AC
:20014000CC2920202020202020202020202020202020202020202020D0E5E4E0EAF2E8F0BD
:200160002E20E7EDE0F7E5EDE8E52020C7E0E2E5F0F8E8F2FC20F0E5E4E0EAF2E8F02E00E0
:2001800000000000000000000000000000000000000000C7EDE0F7E5EDE8E5202320202092
:2001A00020202020202020DFF0EAEEF1F2FC3A202020202520202020202020C2F0E5ECFF98
:2001C0003A2020203A202020202020202020202020202020202020202020202020202020EB
:2001E00020202000CCE0EAF1E8ECE0EBFCEDEEE520E7EDE0F7E5ED2E2020202020202020F2
:2002000020202020202020202020202050574D20E2FBF5EEE4E03A2020202020202020206C
:20022000202020202020202020202020202020202020202000CEF2EAEBFEF7E5ED0020D0F2
:20024000E5E6E8EC20F0E0E1EEF2FB202020202020202020202020202020202020202020B3
:2002600020202020202020D0F3F7EDEEE92020202020202020202020202020C0E2F2EEECF2
:20028000E0F2E8F7E5F1EAE8E920202020200000000000000000000000000000000000007C
:2002A0000000202020CCE5EDFE20EDE0F1F2F0EEE5EA2020202020CDE0E7E0E42E2E2E2023
:2002C0002020202020202020202020D0E5E6E8EC20F0E0E1EEF2FB2020202020202020D3D0
:2002E000F1F2E0EDEEE2EAE020E2F0E5ECE5EDE8202020CDE0F1F2F0EEE9EAE020EEF1E2D5
:20030000E5F9E5EDE8FF20CFE0F0E0ECE5F2F0FB2050574D20202020202000000000000025
:2003200000000000000000000000000000001F1D1F1E1F1E1F1F1E1F1E1F00010203040540
:20034000060708090A0B0C0D0E0F101112131415161718191A1B1C1D1E1F202122232425ED
:20036000262728292A2B2C2D2E2F303132333435363738393A3B3C3D3E3F404142434445CD
:20038000464748494A4B4C4D4E4F505152535455565758595A5B5C5D5E5F606162636465AD
:2003A000666768696A6B6C6D6E6F707172737475767778797A7B7C7D7E7F0000000000009C
:2003C00000000000000000000000000000000000000000000000000000000000000000001D
:2003E0000000CB00000000000000B0B1B2B3B4000000CB0000000000000041804292814592
:20040000828384854B864D484F8750435488D858898A8B8C8D8E628FACAD41804292814509
:20042000828384854B864D484F8750435488D858898A8B8C8D8E628FACAD1000E101000052
:200440000100E001B21B6DDB2801622EB32FA62D80E000E857D8482F50E004E110E0B6DAB4
:2004600098018201020F131F88D700EC4BD8482F50E004E110E0AADA98018201020F131F50
:200480000C5E1F4F7AD704E93DD8482F50E004E110E09CDA98018201020F131F085D1F4F0D
:2004A0006CD704ED2FD8482F50E004E110E08EDA98018201020F131F045C1F4F5ED7A130EA
:2004C00019F400E81FD80EC0A23019F400EC1AD809C0A33019F404E915D804C0A43011F485
:2004E00004ED10D800E12DD70FEF1FE02EE0015010402040E1F700C00000CDD6902F9C306C
:2005000091F09D3011F011E001C010E09A3011F001E001C000E01023112329F09B3019F049
:20052000BAD6902FECCF9D30A1F4A43010F4A39510C0482F50E004E110E048DAF201E00FEF
:20054000F11FEF5AFF4F0491E155F040002309F083959C3001F5A23060F07724282F30E0DF
:200560000A2F10E0200F311F6216730614F4AA9512C0A13021F4681610F48A950CC08615DB
:2005800028F4813018F0A3958A9505C0882319F46A1608F4AA959B3021F48A0F8619082FA8
:2005A00005C09A3011F40FEF01C053CFE8E0CACAB6DAC80139012A01A62FBEEF481659066D
:2005C00008F4C2018615970508F4C3014C010A2F006898D7820144D10A2F006893D78C01D8
:2005E0001FD70DE08FD7BF3F19F455D6B02FFBCFBA3080F44AE050E08201FCD90817190784
:2006000048F04AE050E08C01E1D9C8010B2F10E0800F911F4816590608F4C201B13139F444
:2006200080E090E00A2F00686DD7820119D10A2F006868D7082F092B11F08C01F1D60FEFFA
:200640001FE02EE0015010402040E1F700C00000BC3091F48415950508F401960A2F00681C
:2006600051D78C01DDD60FEF1FE02EE0015010402040E1F700C00000BD30B9F468167906D7
:2006800008F401970A2F00683DD78201E9D00A2F006838D78C01C4D60FEF1FE02EE00150A2
:2006A00010402040E1F700C00000BE3061F44AE050E08C019FD9C8010A2F006823D78C015F
:2006C000AFD600E23ED6BB3021F48615970550F408C0BA3021F40CE015D7840106C0BFEF8C
:2006E00082CFC3010CE00ED78C01EAE029CA17DAC80139012A01A62FBEEF481659060CF46C
:20070000C201861597050CF4C3014C010A2F0068F9D6772012F400E214D68201A1D00A2FC8
:200720000068F0D68C01E1D60DE0ECD6BF3F19F4B2D5B02FFBCFBA3080F44AE050E0820122
:2007400071D9081719074CF04AE050E08C013ED9C8010B2F10E0800F911F481659060CF4E7
:20076000C201B13159F480E090E00A2F0068CAD6772012F400E2E5D5820172D00A2F0068D7
:20078000C1D60FEF1FEB22E1015010402040E1F700C00000BC30D9F499233AF40A2F0068DA
:2007A000B1D600E2CED582015BD0841595050CF401960A2F0068A6D68C0197D60FEF1FEB96
:2007C00022E1015010402040E1F700C00000BD30D9F4681679060CF401970A2F006892D625
:2007E000772012F400E2ADD582013AD00A2F006889D68C017AD60FEF1FEB22E101501040E2
:200800002040E1F700C00000BE3061F44AE050E08C0108D9C8010A2F006874D68C0165D659
:2008200000E28FD5BF3041F49195819590400A2F006868D68C0159D6BB3021F48615970570
:2008400054F408C0BA3021F40CE05CD6840106C0BFEF6CCFC3010CE055D68C01EAE070C9CC
:2008600066D9C80100E26DD58A3000E09007A4F000E267D5843600E0900774F000E261D5BC
:20088000883E03E0900744F000E25BD5803107E2900714F000E255D5E2E05AC98A9336E079
:2008A00022E002EA12E0CFDD802F082F005049F00A9589F00A9589F00A9589F00A9589F0DD
:2008C000EECF0FEF1FEB22E1015010402040E1F700C0000008C0ECD1E2CFA4D0E0CF0AD183
:2008E000DECFEED1DCCF899108951ED9D801922F832F442E00E806D64091EF0150E004E1DB
:2009000010E064D8980107E710E0020F131F35D500ECF8D50FE910E01ED506ECF3D5042D68
:2009200048D500EB0ED503E40CD504E9EBD504EB10E011D50AE9E6D59130E8F0492F50E0A3
:200940004F5F5F4F04E610E041D8012F10E031D505E2F7D4813011F408E1F3D4823011F453
:2009600009E1EFD4833011F40DE2EBD4882331F400E2E7D403C005E312E0EDD404EDC2D511
:2009800009EC10E0E8D48D0102D0E5E0DEC8CDD8D80104EDB7D513960C9113970A3010F4C2
:2009A00000E2CFD413960C91139703D507EDAAD512960C9112970A3010F400E3C2D412962A
:2009C0000C911297F6D40AED9DD511960C9111970A3010F400E3B5D411960C911197E9D45F
:2009E0000EED90D514960C9114970A3010F400E2A8D414960C911497DCD401EE83D5159675
:200A00000C9115970A3010F400E39BD415960C911597CFD406EE76D516960C911697C9D494
:200A2000E4E094C800E86ED50EED10E094D403EA69D54DE350E0A5D7E8D402EE11E0A7DFEE
:200A400066EE43E650E02FE030E00091E80110E0AFDD0093E80161EE4CE050E021E030E09C
:200A60000091E70110E0A4DD0093E7016EED0091E70110E0F801E25DFC4F449150E021E0C4
:200A800030E00091E60110E093DD0093E60164ED47E150E020E030E00091E50110E088DD6F
:200AA0000093E50167ED4BE350E020E030E00091E40110E07DDD0093E4016AED4BE350E00E
:200AC00020E030E00091E30110E072DD0093E30163EA48E750E028E83FEF0A014DE350E086
:200AE00050D7102F110F110BA00101DE4DE350E05BD7089519D880E0843108F0D7C034E0FC
:200B000023E00FE211E09FDC402E442009F0A4C000E8F8D403E911E01ED40BE8F3D4082FD2
:200B2000039547D407ECEED4482F50E003E010E04DD740E050E0400F511F23D7083110F06D
:200B400000E00AC0482F50E003E010E03FD740E050E0400F511F15D7A02F0A2F2AD40AEC64
:200B6000D1D421E030E0482F50E003E010E02ED7200F311FA90105D70C3310F000E00BC051
:200B800021E030E0482F50E003E010E01FD7200F311FA901F6D6902F092F0BD40DE9B2D48D
:200BA00022E030E0482F50E003E010E00FD7200F311FA901E6D6402F50E004E610E006D788
:200BC0004FEF50E017D7B02F0B2FF3D367EC47E150E020E030E00A2F10E0EADC202F482F6A
:200BE00050E003E010E0F2D640E050E0400F511F022FDAD66AEC4BE350E020E030E0092F3E
:200C000010E0D6DC602F21E030E0482F50E003E010E0DCD6200F311F062FA901C5D66DE917
:200C200044E650E020E030E00B2F10E0C1DC4FEF50E0CCD644E650E0DDD6602F22E030E0C5
:200C4000482F50E003E010E0C1D6200F311F062FA901AAD6839550CF843140F52FEF482FEF
:200C600050E003E010E0B2D640E050E0400F511F022F9AD66FEF21E030E0482F50E003E040
:200C800010E0A4D6200F311F062FA9018DD66FEF22E030E0482F50E003E010E097D6200FA3
:200CA000311F062FA90180D68395D6CFE5E04DC734E023E00EE312E0C6DB0093EF0108955E
:200CC00000E820D404EE11E046D36CEC4FEF50E020E030E00A014CE350E053D610E0A00142
:200CE00067DC4CE350E060D64CE350E04AD60093E101089502E20FBD09E10EBD0FEF10E038
:200D000017BD06BD00E010E01BBD0ABD00E010E019BD08BDC19A07B3066007BB4CE350E0C6
:200D200030D60093E1010895F4D628013901FA0188899989AA89BB898C889D88AE88BF8813
:200D4000488D598D6A8D7B8D820193017ED668017901A401B5018201930177D6A801B90169
:200D600086019701041B150B260B370BAF01652F660F660B762F841B950BA60BB70BAC0174
:200D8000BD01A6D6800E911EA21EB31E84019501ECE1D0C6BED62A970F83188729874883CC
:200DA00059836A834A8C5B8CF201438150E000E11EE00CD64801A92CAA0CAA08BA2CF201A6
:200DC000428150E00CE310E001D6212F220F220B322F800E911EA21EB31EF201018110E028
:200DE00020E030E0800E911EA21EB31E640175014F8150E000E11EE0E9D54801A92CAA0CC9
:200E0000AA08BA2C488550E00CE310E0DFD5212F220F220B322F800E911EA21EB31E8B82C0
:200E20009C82AD82BE82488150E000E11EE0CED54801A92CAA0CAA08BA2C498150E00CE355
:200E400010E0C4D5212F220F220B322F800E911EA21EB31EC401D5010B811C812D813E81FB
:200E600080179107A207B30724F480589E4AAE4FBF4F0B811C812D813E81081719072A07F7
:200E80003B0721F40A8110E038012CC00A8110E020E030E03A932A931A930A930D8510E07A
:200EA00020E030E03A932A931A930A934B855C856D857E858C019D01041B150B260B370BCB
:200EC0003A932A931A930A9340E050E00F84188829883A888601970100191109220933098F
:200EE00023DF380100E0601601E0700614F00FEF01C0062D2A96E2E11DC611D6F80143810A
:200F000050E008E017E062D59801428150E00EE110E05CD5200F311F0181069510E0200F34
:200F2000311F2F5F3F4F190140E050E02AD5402F50E008E017E04AD5980141E050E021D55F
:200F4000402F50E00EE110E041D5200F311F390160E0643108F053C0633108F049C023E0CC
:200F600030E0462F50E003E010E030D5200F311FA90107D50F3FE1F123E030E0462F50E007
:200F800003E010E023D5200F311FA901FAD4402F50E008E017E01AD5980104E0802E00E017
:200FA000902E462F50E003E010E010D5800E911EA401E7D4402F50E00EE110E007D5200FF0
:200FC000311F29016214730488F44214530470F023E030E0462F50E003E010E0F7D4200F9C
:200FE000311FA901D1D4D801922F09C0320105C040E050E0C9D4D801922F6395AACF8D0171
:20100000292FEAE09DC58A93802F8823B1F00091E101809F80014FEF50E0ECD419BD08BD58
:20102000C19B09C00FEF1FED21E0015010402040E1F700C00000C19805C0C19A00E010E09E
:2010400019BD08BD899108950FE005BD00E809BF03EB03BD0895E02F312F522F652F28E006
:20106000213060F1432F01E010E0B8D4F0E01081102B10830CE00A95F1F760FB4EF4432F4E
:2010800001E010E0ABD40095F0E010811023108307E611E001501040E9F700C00000432FB3
:2010A00001E010E09BD40095F0E01081102310830CE00A95F1F766952A95D2CF089534D5C0
:2010C000A02FB12F922F432E492F01E010E086D4EA2FF0E01081102B108309EC18E0015006
:2010E0001040E9F700C00000492F01E010E076D40095EA2FF0E01081102310830CE00A950D
:20110000F1F784E6EB2FF0E0208130E0492F01E010E064D420233123492F01E010E05ED44F
:201120002017310731F40CE00A95F1F78A95882349F78823C1F088E2EB2FF0E0208130E03D
:20114000492F01E010E04AD420233123492F01E010E044D42017310731F00CE00A95F1F72D
:201160008A95882349F709EC18E001501040E9F700C00000882321F0242D192F0A2F6BDF5F
:20118000082FE5E0E2C4302F512F722F60E028E02130B0F16695472F01E010E01FD4E32FAC
:2011A000F0E01081102B10830CE00A95F1F7472F01E010E013D40095E32FF0E01081102324
:2011C00010830CE30A95F1F7E52FF0E000801124472F01E010E002D400221122472F01E0A4
:2011E00010E0FCD30016110611F4606801E007E611E001501040E9F700C000002A95C8CFE0
:20120000062F089592D4A02FB12F822F932F492F01E010E0E3D30095EA2FF0E01081102333
:201220001083492F01E010E0D9D30095EB2FF0E01081102310833EEE292F182F0B2F3FDF2D
:20124000002399F03AEA292F182F0B2F38DF002361F000E00093EA01292F182F0B2F93DFB1
:201260000093E0010091E0010DC00091EA0103950093EA010091EA010B3010F00FE702C0BA
:201280000091E001E4E062C401B30F7101BB02B3006E02BB089585991AC010E01A3058F407
:2012A0002FEF31E121503040E9F700C00000859902C01395F3CF193050F0869902C001E1E7
:2012C0000895879902C00EE008950CE0089586991AC010E01A3058F42FEF31E121503040EB
:2012E000E9F700C00000869902C01395F3CF193050F0859902C001E10895879902C00FE04A
:2013000008950DE0089587991AC010E01A3058F42FEF31E121503040E9F700C00000879955
:2013200002C01395F3CF193050F0859902C00EE00895869902C00FE008950BE008950FEF9A
:201340000895F5D3802F90E0FC01E65CFC4F0491E3D0E2E0FDC3EBD3C801FC010491002379
:2013600051F0FC01049110E0F801E65CFC4F0491D3D00196F2CFE2E0EBC3D8D3C801A0E030
:20138000FC010491002311F40A2F11C00A2FA02FA395043110F00A2F0AC0FC01049110E08F
:2013A000F801E65CFC4F0491B7D00196E9CFE3E0CEC3BBD3802F4AE0082FFAD2942F4AE091
:2013C000082FF6D2802F4AE0082FF2D2A42F4AE0082FEED2B02FBB2351F00B2F00639CD03F
:2013E0000A2F006399D0092F006396D00CC0AA2339F00A2F006390D0092F00638DD003C06E
:20140000092F006389D0E4E0A1C38A93802F88231AF40DE281D08195082FCBDF899108953D
:2014200081D3C8014AE050E08C01E4D2A42F4AE050E08C01DFD2C8014AE050E08C01DAD22B
:20144000B42F4AE050E08C01D5D2C8014AE050E08C01D0D2442E4AE050E08C01CBD2C8010A
:201460004AE050E08C01C6D2542E4AE050E08C01C1D2602E662081F0062D00634DD0052D87
:2014800000634AD0042D006347D00B2F006344D00A2F006341D027C0552069F0052D00637C
:2014A0003BD0042D006338D00B2F006335D00A2F006332D018C0442051F0042D00632CD038
:2014C0000B2F006329D00A2F006326D00CC0BB2339F00B2F006320D00A2F00631DD003C038
:2014E0000A2F006319D0E7E02EC321D3C80199232AF40DE211D09195819590408C0190DF40
:20150000E2E026C38A93802FC49808EF0FD0082F0DD0C49A899108958A93802FC4980AEFD8
:2015200005D0082F03D0C49A89910895302F20E02830B8F4C59800C0422F00E810E054D2C8
:20154000132F1023112311F001E001C000E0102F10FDC39A10FFC39800C0C59A00C02395B5
:20156000E7CF08958A93802F082F03700863CADF89910895C49ABC9AC59ABD9ABB9A01E235
:201580000A95F1F7000001E0BDDF02E0BBDF0CE0B9DF03E0E7DF0895FA93EA935A934A932D
:2015A0003A932A931A930A933FB70091E20103950093E201043608F483C0EBEEF1E000813B
:2015C0000160008300E00093E2010091E30103950093E3010C3308F44EC000E00093E301AD
:2015E000EBEEF1E00081026000830091E40103950093E4010C33F8F100E00093E401009144
:20160000E50103950093E5010831A8F100E00093E5014DE350E0B5D10093E9012091E601AD
:2016200023952093E6010091E70110E0F801E35DFC4F0491021768F00091E6010D31D9F4E2
:201640000091E7010230B9F40091E8010370002391F001E00093E6010091E70103950093A2
:20166000E7010C3040F001E00093E7010091E80103950093E8010091E501002309F5009103
:20168000E9010023E9F00091E90101301CF001E010E002C00FEF1FEF1091E301100F1093C6
:2016A000E3010091E901013034F00091E9010A950093E90105C00091E90103950093E9018A
:2016C0003FBF099119912991399149915991E991F991189527D20EDBB7DC0FEF1FE925E04F
:2016E000015010402040E1F700C00000CDDD42DF00E808DF06E210E02EDE0FEF1FE720E7C8
:20170000015010402040E1F700C00000789430E026E317E308E376DD402F30E00091EC01D6
:201720001091ED01202F02EE11E0DFD802EE11E0E4DBD801922FEBEEF1E0008100FF2FC0E0
:20174000EBEEF1E000810E7F008330E026E317E308E358DD0093EE010091EF01013099F45A
:2017600002EE11E01A930A93AD01692F8201262D11DB10E00093EC011093ED010091EC01B7
:201780001091ED0140DC4091EE013091F0010091EC011091ED01202F02EE11E0A6D8EBEE98
:2017A000F1E0008101FF25C0EBEEF1E000810D7F00830091E5010A17E0F00091E4010B17B8
:2017C000C0F02D01692E02EE11E097DBD801922F961520F402E00093F0010BC0691620F424
:2017E00001E00093F00105C0691619F403E00093F001EBEEF1E0008102FF30C0EBEEF1E006
:2018000000810B7F00830091E501002379F4B2DE4091EE013091F0010091EC011091ED0124
:20182000202F02EE11E061D800E09CDE0091E501063011F401E096DE0091E501093011F429
:2018400003E090DE0091E501003111F402E08ADE0091E501043111F401E084DE1CDD0B3018
:2018600031F51CD80091EF01013009F50091EC011091ED01602E0091E501402E0091E401A8
:20188000502E02EE11E039DBD801922F961520F402E00093F0010BC0691620F401E0009344
:2018A000F00105C0691619F403E00093F0010091EF01002309F03FCFEEDC0C3021F0EBDCF6
:2018C0000D3009F038CF0091EC011091ED010F3F20E0120758F4DFDC0C3041F4ECEEF1E034
:2018E000008111810F5F1F4F008311830091EC011091ED01012B59F0CEDC0D3041F4ECEE6A
:20190000F1E00081118101501040008311830091EC011091ED0177DB4091EE0130E000916B
:20192000EC011091ED01202F02EE11E0DED72091EC013091ED01022F083C40F42CEC31E027
:2019400021503040E9F700C00395F6CFF4CE00008895FECF0FED0DBF01E00EBFC0E6D1E030
:20196000FED0002309F00BD1B5DEF1DFF0CFE199FECF08954F5F5F4FFADF4EBB5FBBE09AC9
:201980000895FADF0DB30895F7DF0DB3F3DF1DB3F1DF2DB308954F5F5F4F4EBB5FBBF894E4
:2019A000E29AE19A0FBE08950FB6E1DF0DBBF5CF0024E8E0EA9532F0001F001C0416D0F310
:2019C000041AF8CF001F402D00950895149F102D059F100D049F002D110D08954A951AF03F
:2019E000000F111FFBCF08954A951AF015950795FBCF089500241124EFE0001F111F001C18
:201A0000111C0416150610F0041A150AEA95AAF7001F111FA0010095109508955195419584
:201A200050400895FF27552312F4F160F7DF112312F4F09506D0DEDFF0FD03D0F1FDEECFF1
:201A4000089511950195104008952224349F302D259F300D169F300D079F300D249F202D64
:201A6000310D159F200D311D069F200D311D149F102D210D321D059F100D211D321D049F7B
:201A8000002D110D221D321D0895002411241001E0E2EA9592F0001F111F221F331F001CA5
:201AA000111C221C331C041615062606370688F3041A150A260A370AECCF001F111F221F5A
:201AC000331FA001B10100951095209530950895FF27772312F4F16014D0332312F4F09534
:201AE00008D0D3DFF69508F404D0F69508F409C0089530952095109501951F4F2F4F3F4FE5
:201B0000089570956095509541955F4F6F4F7F4F0895FA92EA92DA92CA92BA92AA929A9218
:201B20008A927A926A925A924A92BA93AA939A938A930895FF84EE84DD84CC84BB84AA8435
:201B4000998488847F806E805D804C80BB81AA8199818881F0E0EC0FFD1FEF01089501E0E7
:201B6000089520E006D0E9F70895259102D0E9F708952D9301501040202F212B08958AE36A
:201B800094E0FC0105911491FC013296A591B491FC01349625913491422F432B19F0F90135
:141BA000E4DF01C0DEDF069614E08634910748F308957FFFB8
:00000001FF
