:020000020000FC
:1000000087C11895189526C01895189518951895B4
:100010001895189518951895189518951895189578
:100020001895189518950A00140028005000A00093
:1000300040018002F8021F001D001F001E001F006B
:100040001E001F001F001E001F001E001F000B00CF
:10005000A0000000BA93AA93FA93EA931A920A9224
:100060006A935A934A933A932A931A930A936FB7CF
:10007000A0EAB0E00C9103950D93043608F44DC04E
:1000800000E00093A0000C9103950D9300E0009315
:10009000A10055D012970C3360F100E00093A2004C
:1000A00013964DD01397083120F100E00093A30080
:1000B00043D00093A700149642D0149710E02091EB
:1000C000A50032E0239FF001EC5CFF4F25913491B5
:1000D0000217130790F001E00093A40015962FD0AB
:1000E00015970C3050F001E00093A500169627D02C
:1000F00004C00091A300002381F41ED0002369F006
:100100000091A700102F1A951093A700013014F04A
:1001100001E001C00FEF0093A1006FBF0991199199
:100120002991399149915991699109901990E991D1
:10013000F991A991B991189540E050E000C10C9156
:1001400003950C930895006C07B9369A349BFECF43
:10015000349A04B115B1089500E0F5DF98010091DB
:10016000A80012E0019FF001EA5DFF4F0591149194
:100170002017310708F4980146E0ECD0A901F0D02F
:100180001CD0D1F040E419D028F41BD02F5F3F4F92
:1001900039BD28BD16D00217130728F412D02150FC
:1001A000304039BD28BD2FE23AE221503040E9F716
:1001B00000C000004A9539F7089503D02017310791
:1001C000089528B539B50895F7D0D801FA01362F2A
:1001D0004091A30050E024D04091A2000CE310E035
:1001E000B1D0600F711F0091A100060F751F432F42
:1001F000421B5040172FA6D018014E2F50E04A1B2B
:1002000050400ED04F2F50E010E04B1B50400CE3FD
:1002100099D0600F711FAB018101BAD0E4E0D1C069
:1002200000E11EE08FD0B8010895C5D090E001E054
:10023000402E9093A30002E30093A20041E058E215
:1002400064E600E010E020E0BFDFC298BA9A8A9826
:10025000929AA098A89800EC07B907E806B900B7E9
:100260000F7E00BF03E20FBD09E10EBD00E49BBDA0
:100270000ABD99BD98BD09E005BD00E809BF0CE6BF
:1002800003BD99BD98BD9093A8002EC00A3F08F405
:1002900003952FEF3BE621503040E9F700C0000006
:1002A000829BF4CF1091AA000536112338F019F47F
:1002B0004092AA001AC09093AA0017C049F4E0EA3D
:1002C000F0E0008503950087083008F0908744DF50
:1002D0000091AA00013049F40091A900002381F0A7
:1002E0000093A8009093A90037DF8299FDCF0FEF0C
:1002F0001BE601501040E9F700C0000000E0D0CF3D
:100300000091A8000093A900BECF00008895FECF01
:100310000FE90DBF00E00EBFC0E8D0E05BD00023C6
:1003200009F068D082DFF1DFF0CFE199FECF0895C8
:100330004F5F5F4FFADF4EBB5FBBE09A0895FADF75
:100340000DB30895149F102D059F100D049F002DCF
:10035000110D08954A951AF0000F111FFBCF089553
:1003600000241124EFE0001F111F001C111C0416B3
:10037000150610F0041A150AEA95AAF7001F111FB6
:10038000A00100951095089551954195504008950C
:10039000FF27552312F4F160F7DF112312F4F095D3
:1003A00006D0DEDFF0FD03D0F1FDEECF089511950C
:1003B0000195104008954A92BA93AA939A938A930A
:1003C0000895BB81AA8199818881F0E0EC0FFD1F1F
:1003D000EF01089501E0089520E006D0E9F70895BF
:1003E000259102D0E9F708952D9301501040202F58
:1003F000212B08958EE490E0FC0105911491FC01FD
:100400003296A591B491FC01349625913491422FF6
:10041000432B19F0F901E4DF01C0DEDF069610E09E
:080420008435910748F30895AB
:0400000300000000F9
:00000001FF
