:10000000BEC01895189518951895189518951895B7
:100010001895189518951895189518951895189578
:100020001895189518950A00140028005000A00093
:1000300040018002F8020300A0000000006C07B934
:10004000369A349BFECF349A04B115B1089500E07E
:10005000F5DF98010091A00012E0019FF001EA5D38
:10006000FF4F059114912017310708F4980146E0DD
:1000700093D0A90197D01BD0C9F040E418D028F440
:100080001AD02F5F3F4F39BD28BD15D00217130777
:1000900028F411D02150304039BD28BD20ED33E087
:1000A00021503040E9F700004A9541F7089503D008
:1000B00020173107089528B539B50895C298BA9A1E
:1000C0008A98929AA098A89800EC07B907E806B910
:1000D00000B70F7E00BF03E20FBD09E10EBD00E4D3
:1000E00010E01BBD0ABD19BD18BD1093A00030C0A3
:1000F0000A3F08F4039523EC39E021503040E9F73A
:1001000000C00000829BF4CF1091A200053611239D
:1001100038F021F401E00093A2001BC000E0FBCF07
:1001200051F4E0EAF0E0008103950083083010F01C
:1001300000E000838CDF0091A200013051F40091B7
:10014000A100002389F00093A00000E00093A1002B
:100150007EDF8299FDCF03EC19E001501040E9F7F2
:1001600000C0000000E0CECF0091A0000093A100ED
:1001700000E00093A000ECCF00008895FECF0FE9CF
:100180000DBF00E00EBFC0E8D0E020D0002309F092
:100190002DD094DFF1DFF0CF4A951AF0000F111F38
:1001A000FBCF089500241124EFE0001F111F001C55
:1001B000111C0416150610F0041A150AEA95AAF780
:1001C000001F111FA00100951095089501E00895EA
:1001D00020E006D0E9F70895259102D0E9F70895C7
:1001E0002D9301501040202F212B089586E390E09D
:1001F000FC0105911491FC013296A591B491FC018A
:10020000349625913491422F432B19F0F901E4DF04
:1002100001C0DEDF069610E08C33910748F30895A5
:00000001FF
:00000001FF
